{
  "_format": "hh-sol-artifact-1",
  "contractName": "WhitelistHook",
  "sourceName": "contracts/WhitelistHook.sol",
  "abi": [
    {
      "inputs": [
        {
          "internalType": "address[]",
          "name": "accounts",
          "type": "address[]"
        }
      ],
      "stateMutability": "nonpayable",
      "type": "constructor"
    },
    {
      "inputs": [
        {
          "internalType": "address",
          "name": "account",
          "type": "address"
        }
      ],
      "name": "AddressNotWhiteListed",
      "type": "error"
    },
    {
      "anonymous": false,
      "inputs": [
        {
          "indexed": true,
          "internalType": "address",
          "name": "safeAccount",
          "type": "address"
        },
        {
          "indexed": true,
          "internalType": "address",
          "name": "account",
          "type": "address"
        }
      ],
      "name": "AddressRemovedFromWhitelist",
      "type": "event"
    },
    {
      "anonymous": false,
      "inputs": [
        {
          "indexed": true,
          "internalType": "address",
          "name": "safeAccount",
          "type": "address"
        },
        {
          "indexed": true,
          "internalType": "address",
          "name": "account",
          "type": "address"
        }
      ],
      "name": "AddressWhitelisted",
      "type": "event"
    },
    {
      "inputs": [
        {
          "internalType": "address[]",
          "name": "accounts",
          "type": "address[]"
        }
      ],
      "name": "addToWhitelist",
      "outputs": [],
      "stateMutability": "nonpayable",
      "type": "function"
    },
    {
      "inputs": [
        {
          "internalType": "address",
          "name": "",
          "type": "address"
        }
      ],
      "name": "globalWhitelistedAddresses",
      "outputs": [
        {
          "internalType": "bool",
          "name": "",
          "type": "bool"
        }
      ],
      "stateMutability": "view",
      "type": "function"
    },
    {
      "inputs": [],
      "name": "metadataHash",
      "outputs": [
        {
          "internalType": "bytes32",
          "name": "",
          "type": "bytes32"
        }
      ],
      "stateMutability": "view",
      "type": "function"
    },
    {
      "inputs": [],
      "name": "metadataProvider",
      "outputs": [
        {
          "internalType": "uint256",
          "name": "providerType",
          "type": "uint256"
        },
        {
          "internalType": "bytes",
          "name": "location",
          "type": "bytes"
        }
      ],
      "stateMutability": "view",
      "type": "function"
    },
    {
      "inputs": [],
      "name": "name",
      "outputs": [
        {
          "internalType": "string",
          "name": "",
          "type": "string"
        }
      ],
      "stateMutability": "view",
      "type": "function"
    },
    {
      "inputs": [
        {
          "internalType": "contract ISafe",
          "name": "account",
          "type": "address"
        },
        {
          "internalType": "bool",
          "name": "success",
          "type": "bool"
        },
        {
          "internalType": "bytes",
          "name": "preCheckData",
          "type": "bytes"
        }
      ],
      "name": "postCheck",
      "outputs": [],
      "stateMutability": "nonpayable",
      "type": "function"
    },
    {
      "inputs": [
        {
          "internalType": "contract ISafe",
          "name": "account",
          "type": "address"
        },
        {
          "components": [
            {
              "components": [
                {
                  "internalType": "address payable",
                  "name": "to",
                  "type": "address"
                },
                {
                  "internalType": "uint256",
                  "name": "value",
                  "type": "uint256"
                },
                {
                  "internalType": "bytes",
                  "name": "data",
                  "type": "bytes"
                }
              ],
              "internalType": "struct SafeProtocolAction[]",
              "name": "actions",
              "type": "tuple[]"
            },
            {
              "internalType": "uint256",
              "name": "nonce",
              "type": "uint256"
            },
            {
              "internalType": "bytes32",
              "name": "metadataHash",
              "type": "bytes32"
            }
          ],
          "internalType": "struct SafeTransaction",
          "name": "tx",
          "type": "tuple"
        },
        {
          "internalType": "uint256",
          "name": "executionType",
          "type": "uint256"
        },
        {
          "internalType": "bytes",
          "name": "executionMeta",
          "type": "bytes"
        }
      ],
      "name": "preCheck",
      "outputs": [
        {
          "internalType": "bytes",
          "name": "preCheckData",
          "type": "bytes"
        }
      ],
      "stateMutability": "view",
      "type": "function"
    },
    {
      "inputs": [
        {
          "internalType": "contract ISafe",
          "name": "account",
          "type": "address"
        },
        {
          "components": [
            {
              "components": [
                {
                  "internalType": "address payable",
                  "name": "to",
                  "type": "address"
                },
                {
                  "internalType": "uint256",
                  "name": "value",
                  "type": "uint256"
                },
                {
                  "internalType": "bytes",
                  "name": "data",
                  "type": "bytes"
                }
              ],
              "internalType": "struct SafeProtocolAction",
              "name": "action",
              "type": "tuple"
            },
            {
              "internalType": "uint256",
              "name": "nonce",
              "type": "uint256"
            },
            {
              "internalType": "bytes32",
              "name": "metadataHash",
              "type": "bytes32"
            }
          ],
          "internalType": "struct SafeRootAccess",
          "name": "rootAccess",
          "type": "tuple"
        },
        {
          "internalType": "uint256",
          "name": "executionType",
          "type": "uint256"
        },
        {
          "internalType": "bytes",
          "name": "executionMeta",
          "type": "bytes"
        }
      ],
      "name": "preCheckRootAccess",
      "outputs": [
        {
          "internalType": "bytes",
          "name": "preCheckData",
          "type": "bytes"
        }
      ],
      "stateMutability": "nonpayable",
      "type": "function"
    },
    {
      "inputs": [
        {
          "internalType": "address[]",
          "name": "accounts",
          "type": "address[]"
        }
      ],
      "name": "removeFromWhitelist",
      "outputs": [],
      "stateMutability": "nonpayable",
      "type": "function"
    },
    {
      "inputs": [],
      "name": "requiresPermissions",
      "outputs": [
        {
          "internalType": "uint8",
          "name": "permissions",
          "type": "uint8"
        }
      ],
      "stateMutability": "view",
      "type": "function"
    },
    {
      "inputs": [],
      "name": "requiresRootAccess",
      "outputs": [
        {
          "internalType": "bool",
          "name": "",
          "type": "bool"
        }
      ],
      "stateMutability": "view",
      "type": "function"
    },
    {
      "inputs": [
        {
          "internalType": "bytes32",
          "name": "_metadataHash",
          "type": "bytes32"
        }
      ],
      "name": "retrieveMetadata",
      "outputs": [
        {
          "internalType": "bytes",
          "name": "metadata",
          "type": "bytes"
        }
      ],
      "stateMutability": "view",
      "type": "function"
    },
    {
      "inputs": [
        {
          "internalType": "bytes4",
          "name": "interfaceId",
          "type": "bytes4"
        }
      ],
      "name": "supportsInterface",
      "outputs": [
        {
          "internalType": "bool",
          "name": "",
          "type": "bool"
        }
      ],
      "stateMutability": "view",
      "type": "function"
    },
    {
      "inputs": [],
      "name": "version",
      "outputs": [
        {
          "internalType": "string",
          "name": "",
          "type": "string"
        }
      ],
      "stateMutability": "view",
      "type": "function"
    },
    {
      "inputs": [
        {
          "internalType": "address",
          "name": "",
          "type": "address"
        },
        {
          "internalType": "address",
          "name": "",
          "type": "address"
        }
      ],
      "name": "whitelistedAddresses",
      "outputs": [
        {
          "internalType": "bool",
          "name": "",
          "type": "bool"
        }
      ],
      "stateMutability": "view",
      "type": "function"
    }
  ],
  "bytecode": "0x60c060408181523462000604576200130c803803809162000021828662000625565b843982016020928381830312620006045780516001600160401b039182821162000604570193601f928084870112156200060457855190838211620005cd5760059682881b90875193620000788684018662000625565b8452848085019282010192831162000604578401905b828210620005e35750505084519260c0840184811082821117620005cd57808752620000ba8162000609565b600e81526d57686974656c69737420486f6f6b60901b60e08601528452855194620000e58662000609565b878652640312e302e360dc1b848701528385019586528685019460009586815288516080810181811086821117620004fc578a52604f81527f68747470733a2f2f7a656e67756172642e78797a2f7374617469632f6d656469878201527f612f7265636f766572792e3765343434313765383333623231646164363864318a8201526e30356562643865646232362e73766760881b60608201526060830152885186810181811086821117620004fc578a5287815260808301526001978860a08401528251805190868211620005b95781908a8a8f620001c6835462000674565b908a80831162000589575b505050505089908783116001146200051c578b9262000510575b5050600019600383901b1c1916908a1b1788555b51805190858211620004fc57620002178a5462000674565b858111620004cc575b508790858311600114620004605762000273949392918a918362000454575b5050600019600383901b1c1916908a1b1789555b511515608052620002648162000716565b86815191012060a05262000716565b97885192831162000440576200028b60025462000674565b82811162000404575b5050839082116001146200039a57819086979886926200038e575b5050600019600383901b1c191690851b176002559394935b82955b620002f8575b8451610b179081620007f5823960805181610234015260a0518181816101f901526102720152f35b805186101562000388576001600160a01b038062000317888462000649565b5116845260048352858420805460ff19168617905562000338878362000649565b5116837f3d8a67432904f5c76d317bd3d7568237471009d9a286cd487736d0e2d103e6ad8180a3600019861462000374579483019483620002ca565b634e487b7160e01b83526011600452602483fd5b620002d0565b015190503880620002af565b6002855283852097601f198316865b818110620003ee575091879899918489959410620003d4575b505050811b01600255949394620002c7565b015160001960f88460031b161c19169055388080620003c2565b838301518b5599880199928601928601620003a9565b6200042e91600288528688209084808701821c83019389881062000436575b01901c0190620006b1565b388062000294565b9350829362000423565b634e487b7160e01b86526041600452602486fd5b0151905038806200023f565b9392918a91601f19821690838c528a8c20918c5b8c828210620004b557505096836200027398106200049b575b505050811b01895562000253565b015160001960f88460031b161c191690553880806200048d565b838a015185558f9690940193928301920162000474565b620004f5908b8b528d8a8c209088808701821c8301938d8810620004365701901c0190620006b1565b3862000220565b634e487b7160e01b89526041600452602489fd5b015190503880620001eb565b8b80528a8c208d94509190601f1984168d5b8d8282106200056957505084116200054f575b505050811b018855620001ff565b015160001960f88460031b161c1916905538808062000541565b91929395968291958786015181550195019301908e95949392916200052e565b838580620005ae97522092818801831c8401948810620004365701901c0190620006b1565b8a8a8f808a620001d1565b634e487b7160e01b8a52604160045260248afd5b634e487b7160e01b600052604160045260246000fd5b81516001600160a01b0381168103620006045781529084019084016200008e565b600080fd5b604081019081106001600160401b03821117620005cd57604052565b601f909101601f19168101906001600160401b03821190821017620005cd57604052565b80518210156200065e5760209160051b010190565b634e487b7160e01b600052603260045260246000fd5b90600182811c92168015620006a6575b60208310146200069057565b634e487b7160e01b600052602260045260246000fd5b91607f169162000684565b818110620006bd575050565b60008155600101620006b1565b60005b838110620006de5750506000910152565b8181015183820152602001620006cd565b906020916200070a81518092818552858086019101620006ca565b601f01601f1916010190565b620007f16022620007e0928051620007bf60208301516040840151151593606081015190620007ac60a060808301519201511515916200079b6040519889956200078562000771602089019b60c08d5260e08a0190620006ef565b601f19998a8a83030160408b0152620006ef565b91606088015287878303016080880152620006ef565b90858583030160a0860152620006ef565b9060c08301520390810184528362000625565b604051948592600060208501526000602185015251809285850190620006ca565b810103600281018452018262000625565b9056fe60806040908082526004908136101561001757600080fd5b600092833560e01c91826301ffc9a7146107b15750816306fdde031461072a578163176ae7b7146105fa578163548db1741461056c57816354fd4d50146104aa5781637359b742146104805781637f649783146103eb57816386f9f8eb14610392578163a865b2ff14610259578163be193d271461021c578163c5a1d7f0146101e1578163d3d72d2a14610174578163d576129614610136578163e8e755b51461011b575063f44d4ca3146100cb57600080fd5b34610117576060366003190112610117576100e46108f5565b506024358015150361011757604435906001600160401b0382116101135761010e91369101610924565b505080f35b8280fd5b5080fd5b83903461011757816003193601126101175751908152602090f35b919050346101135760203660031901126101135760209260ff918391906001600160a01b036101636108f5565b168252855220541690519015158152f35b8391503461011757816003193601126101175780519130602084015260208352818301938385106001600160401b038611176101ce575050828152600283526060820152603f19906101c960808201826108b5565b030190f35b634e487b7160e01b825260419052602490fd5b839034610117578160031936011261011757602090517f00000000000000000000000000000000000000000000000000000000000000008152f35b839034610117578160031936011261011757602090517f000000000000000000000000000000000000000000000000000000000000000015158152f35b905034610113576020918260031936011261038e5780357f00000000000000000000000000000000000000000000000000000000000000000361035257508051838194906002546102a981610805565b9182855260019187838216918260001461032b5750506001146102ed575b5050506102e992916102da91038561083f565b519282849384528301906108b5565b0390f35b9190869350600283528383205b82841061031357505050820101816102da6102e96102c7565b8054848a0186015288955087949093019281016102fa565b60ff19168782015293151560051b860190930193508492506102da91506102e990506102c7565b82606492519162461bcd60e51b8352820152601860248201527743616e6e6f74207265747269657665206d6574616461746160401b6044820152fd5b8380fd5b8390346101175780600319360112610117576103ac6108f5565b6001600160a01b0360243581811692908390036103e7579360ff92849260209616825260038652828220908252855220541690519015158152f35b8480fd5b839034610117576103fb366109b4565b91805b835181101561047c573382526003602090815283832061047792916001600160a01b0391908261042e858a610a61565b5116865252848420805460ff1916600117905561044b8287610a61565b5116337f3d8a67432904f5c76d317bd3d7568237471009d9a286cd487736d0e2d103e6ad8580a3610a3c565b6103fe565b5080f35b83346104a7575061049036610951565b50505050505160208152806102e960208201610876565b80fd5b8390346101175781600319360112610117578051908260018054906104ce82610805565b808652918181169081156105445750600114610509575b5050506104f7826102e994038361083f565b519182916020835260208301906108b5565b80955082526020948583205b82841061053157505050826102e9946104f792820101946104e5565b8054868501880152928601928101610515565b6102e997506104f79450602092508693915060ff191682840152151560051b820101946104e5565b8390346101175761057c366109b4565b91805b835181101561047c57338252600360209081528383206105f592916001600160a01b039190826105af858a610a61565b5116865252848420805460ff191690556105c98287610a61565b5116337f5a76ef3d09a09d8a99c3d9ddddfb7770d906de670d79b5119a8c2cba903814bb8580a3610a3c565b61057f565b8383346101175761060a36610951565b939593810192509050610140818303126101135761062781610910565b916001600160401b03828801358181116107265782610647918501610a8b565b5061065460c08401610910565b5061066160e08401610910565b506101008301359081116103e7579161068261012092610689948301610a8b565b5001610910565b506001600160a01b0393841682526003602090815285832091909416825283528381205460ff169084908215610715575b5050156106d457506102e991519181839283528201610876565b915162461bcd60e51b815291820152601c60248201527f41646472657373206e6f7420696e207468652077686974656c697374000000006044820152606490fd5b60ff925083855220541683856106ba565b8580fd5b83903461011757816003193601126101175780519082805461074b81610805565b808552906001908181169081156105445750600114610776575050506104f7826102e994038361083f565b94508180526020948583205b82841061079e57505050826102e9946104f792820101946104e5565b8054868501880152928601928101610782565b84908434610113576020366003190112610113573563ffffffff60e01b8116809103610113576020925063483f0e2b60e11b81149081156107f4575b5015158152f35b6301ffc9a760e01b149050836107ed565b90600182811c92168015610835575b602083101461081f57565b634e487b7160e01b600052602260045260246000fd5b91607f1691610814565b90601f801991011681019081106001600160401b0382111761086057604052565b634e487b7160e01b600052604160045260246000fd5b906060519182815260005b8381106108a15750826000602080949584010152601f8019910116010190565b806020916080015182828501015201610881565b919082519283825260005b8481106108e1575050826000602080949584010152601f8019910116010190565b6020818301810151848301820152016108c0565b600435906001600160a01b038216820361090b57565b600080fd5b35906001600160a01b038216820361090b57565b9181601f8401121561090b578235916001600160401b03831161090b576020838186019501011161090b57565b6003199060808183011261090b576004356001600160a01b038116810361090b57926024356001600160401b039384821161090b57606090828503011261090b57600401926044359260643591821161090b576109b091600401610924565b9091565b60208060031983011261090b576001600160401b039160043583811161090b578160238201121561090b578060040135938411610860578360051b9060405194610a008584018761083f565b855260248486019282010192831161090b57602401905b828210610a25575050505090565b838091610a3184610910565b815201910190610a17565b6000198114610a4b5760010190565b634e487b7160e01b600052601160045260246000fd5b8051821015610a755760209160051b010190565b634e487b7160e01b600052603260045260246000fd5b81601f8201121561090b578035906001600160401b0382116108605760405192610abf601f8401601f19166020018561083f565b8284526020838301011161090b5781600092602080930183860137830101529056fea2646970667358221220628ece5563b9321aa9a5f1e7515d71d0062e8d16f93c35b1642f93238e39c19164736f6c63430008120033",
  "linkReferences": {},
  "deployedLinkReferences": {}
}