{
  "_format": "hh-sol-artifact-1",
  "contractName": "WhitelistHook",
  "sourceName": "contracts/WhitelistHook.sol",
  "abi": [
    {
      "inputs": [
        {
          "internalType": "address[]",
          "name": "accounts",
          "type": "address[]"
        }
      ],
      "stateMutability": "nonpayable",
      "type": "constructor"
    },
    {
      "inputs": [
        {
          "internalType": "address",
          "name": "account",
          "type": "address"
        }
      ],
      "name": "AddressNotWhiteListed",
      "type": "error"
    },
    {
      "anonymous": false,
      "inputs": [
        {
          "indexed": true,
          "internalType": "address",
          "name": "safeAccount",
          "type": "address"
        },
        {
          "indexed": true,
          "internalType": "address",
          "name": "account",
          "type": "address"
        }
      ],
      "name": "AddressRemovedFromWhitelist",
      "type": "event"
    },
    {
      "anonymous": false,
      "inputs": [
        {
          "indexed": true,
          "internalType": "address",
          "name": "safeAccount",
          "type": "address"
        },
        {
          "indexed": true,
          "internalType": "address",
          "name": "account",
          "type": "address"
        }
      ],
      "name": "AddressWhitelisted",
      "type": "event"
    },
    {
      "anonymous": false,
      "inputs": [
        {
          "indexed": true,
          "internalType": "bytes32",
          "name": "metadataHash",
          "type": "bytes32"
        },
        {
          "indexed": false,
          "internalType": "bytes",
          "name": "data",
          "type": "bytes"
        }
      ],
      "name": "Metadata",
      "type": "event"
    },
    {
      "inputs": [
        {
          "internalType": "address[]",
          "name": "accounts",
          "type": "address[]"
        }
      ],
      "name": "addToWhitelist",
      "outputs": [],
      "stateMutability": "nonpayable",
      "type": "function"
    },
    {
      "inputs": [
        {
          "internalType": "address",
          "name": "",
          "type": "address"
        }
      ],
      "name": "globalWhitelistedAddresses",
      "outputs": [
        {
          "internalType": "bool",
          "name": "",
          "type": "bool"
        }
      ],
      "stateMutability": "view",
      "type": "function"
    },
    {
      "inputs": [],
      "name": "metadataHash",
      "outputs": [
        {
          "internalType": "bytes32",
          "name": "",
          "type": "bytes32"
        }
      ],
      "stateMutability": "view",
      "type": "function"
    },
    {
      "inputs": [],
      "name": "metadataProvider",
      "outputs": [
        {
          "internalType": "uint256",
          "name": "providerType",
          "type": "uint256"
        },
        {
          "internalType": "bytes",
          "name": "location",
          "type": "bytes"
        }
      ],
      "stateMutability": "view",
      "type": "function"
    },
    {
      "inputs": [],
      "name": "name",
      "outputs": [
        {
          "internalType": "string",
          "name": "",
          "type": "string"
        }
      ],
      "stateMutability": "view",
      "type": "function"
    },
    {
      "inputs": [
        {
          "internalType": "contract ISafe",
          "name": "account",
          "type": "address"
        },
        {
          "internalType": "bool",
          "name": "success",
          "type": "bool"
        },
        {
          "internalType": "bytes",
          "name": "preCheckData",
          "type": "bytes"
        }
      ],
      "name": "postCheck",
      "outputs": [],
      "stateMutability": "nonpayable",
      "type": "function"
    },
    {
      "inputs": [
        {
          "internalType": "contract ISafe",
          "name": "account",
          "type": "address"
        },
        {
          "components": [
            {
              "components": [
                {
                  "internalType": "address payable",
                  "name": "to",
                  "type": "address"
                },
                {
                  "internalType": "uint256",
                  "name": "value",
                  "type": "uint256"
                },
                {
                  "internalType": "bytes",
                  "name": "data",
                  "type": "bytes"
                }
              ],
              "internalType": "struct SafeProtocolAction[]",
              "name": "actions",
              "type": "tuple[]"
            },
            {
              "internalType": "uint256",
              "name": "nonce",
              "type": "uint256"
            },
            {
              "internalType": "bytes32",
              "name": "metadataHash",
              "type": "bytes32"
            }
          ],
          "internalType": "struct SafeTransaction",
          "name": "tx",
          "type": "tuple"
        },
        {
          "internalType": "uint256",
          "name": "executionType",
          "type": "uint256"
        },
        {
          "internalType": "bytes",
          "name": "executionMeta",
          "type": "bytes"
        }
      ],
      "name": "preCheck",
      "outputs": [
        {
          "internalType": "bytes",
          "name": "preCheckData",
          "type": "bytes"
        }
      ],
      "stateMutability": "nonpayable",
      "type": "function"
    },
    {
      "inputs": [
        {
          "internalType": "contract ISafe",
          "name": "account",
          "type": "address"
        },
        {
          "components": [
            {
              "components": [
                {
                  "internalType": "address payable",
                  "name": "to",
                  "type": "address"
                },
                {
                  "internalType": "uint256",
                  "name": "value",
                  "type": "uint256"
                },
                {
                  "internalType": "bytes",
                  "name": "data",
                  "type": "bytes"
                }
              ],
              "internalType": "struct SafeProtocolAction",
              "name": "action",
              "type": "tuple"
            },
            {
              "internalType": "uint256",
              "name": "nonce",
              "type": "uint256"
            },
            {
              "internalType": "bytes32",
              "name": "metadataHash",
              "type": "bytes32"
            }
          ],
          "internalType": "struct SafeRootAccess",
          "name": "rootAccess",
          "type": "tuple"
        },
        {
          "internalType": "uint256",
          "name": "executionType",
          "type": "uint256"
        },
        {
          "internalType": "bytes",
          "name": "executionMeta",
          "type": "bytes"
        }
      ],
      "name": "preCheckRootAccess",
      "outputs": [
        {
          "internalType": "bytes",
          "name": "preCheckData",
          "type": "bytes"
        }
      ],
      "stateMutability": "nonpayable",
      "type": "function"
    },
    {
      "inputs": [
        {
          "internalType": "address[]",
          "name": "accounts",
          "type": "address[]"
        }
      ],
      "name": "removeFromWhitelist",
      "outputs": [],
      "stateMutability": "nonpayable",
      "type": "function"
    },
    {
      "inputs": [],
      "name": "requiresRootAccess",
      "outputs": [
        {
          "internalType": "bool",
          "name": "",
          "type": "bool"
        }
      ],
      "stateMutability": "view",
      "type": "function"
    },
    {
      "inputs": [
        {
          "internalType": "bytes4",
          "name": "interfaceId",
          "type": "bytes4"
        }
      ],
      "name": "supportsInterface",
      "outputs": [
        {
          "internalType": "bool",
          "name": "",
          "type": "bool"
        }
      ],
      "stateMutability": "view",
      "type": "function"
    },
    {
      "inputs": [],
      "name": "version",
      "outputs": [
        {
          "internalType": "string",
          "name": "",
          "type": "string"
        }
      ],
      "stateMutability": "view",
      "type": "function"
    },
    {
      "inputs": [
        {
          "internalType": "address",
          "name": "",
          "type": "address"
        },
        {
          "internalType": "address",
          "name": "",
          "type": "address"
        }
      ],
      "name": "whitelistedAddresses",
      "outputs": [
        {
          "internalType": "bool",
          "name": "",
          "type": "bool"
        }
      ],
      "stateMutability": "view",
      "type": "function"
    }
  ],
  "bytecode": "0x60c06040523480156200001157600080fd5b50604051620022e7380380620022e7833981810160405281019062000037919062000529565b6040518060c001604052806040518060400160405280600e81526020017f57686974656c69737420486f6f6b00000000000000000000000000000000000081525081526020016040518060400160405280600581526020017f312e302e3000000000000000000000000000000000000000000000000000000081525081526020016000151581526020016040518060800160405280604f815260200162002298604f913981526020016040518060200160405280600081525081526020016001151581525080806000015160009081620001129190620007c5565b50806020015160019081620001289190620007c5565b50806040015115156080811515815250506200014f81620002c860201b6200093c1760201c565b8051906020012060a081815250505060a0517f522c683f99251eea7f3b027592e92a5398e7582983be1f7c0f33715ce025740f6200019883620002c860201b6200093c1760201c565b604051620001a7919062000935565b60405180910390a25060005b8151811015620002c057600160036000848481518110620001d957620001d862000959565b5b602002602001015173ffffffffffffffffffffffffffffffffffffffff1673ffffffffffffffffffffffffffffffffffffffff16815260200190815260200160002060006101000a81548160ff02191690831515021790555081818151811062000248576200024762000959565b5b602002602001015173ffffffffffffffffffffffffffffffffffffffff16600073ffffffffffffffffffffffffffffffffffffffff167f3d8a67432904f5c76d317bd3d7568237471009d9a286cd487736d0e2d103e6ad60405160405180910390a38080620002b790620009b7565b915050620001b3565b505062000bc6565b6060600080836000015184602001518560400151866060015187608001518860a00151604051602001620003029695949392919062000a73565b604051602081830303815290604052604051602001620003259392919062000b87565b6040516020818303038152906040529050919050565b6000604051905090565b600080fd5b600080fd5b600080fd5b6000601f19601f8301169050919050565b7f4e487b7100000000000000000000000000000000000000000000000000000000600052604160045260246000fd5b6200039f8262000354565b810181811067ffffffffffffffff82111715620003c157620003c062000365565b5b80604052505050565b6000620003d66200033b565b9050620003e4828262000394565b919050565b600067ffffffffffffffff82111562000407576200040662000365565b5b602082029050602081019050919050565b600080fd5b600073ffffffffffffffffffffffffffffffffffffffff82169050919050565b60006200044a826200041d565b9050919050565b6200045c816200043d565b81146200046857600080fd5b50565b6000815190506200047c8162000451565b92915050565b6000620004996200049384620003e9565b620003ca565b90508083825260208201905060208402830185811115620004bf57620004be62000418565b5b835b81811015620004ec5780620004d788826200046b565b845260208401935050602081019050620004c1565b5050509392505050565b600082601f8301126200050e576200050d6200034f565b5b81516200052084826020860162000482565b91505092915050565b60006020828403121562000542576200054162000345565b5b600082015167ffffffffffffffff8111156200056357620005626200034a565b5b6200057184828501620004f6565b91505092915050565b600081519050919050565b7f4e487b7100000000000000000000000000000000000000000000000000000000600052602260045260246000fd5b60006002820490506001821680620005cd57607f821691505b602082108103620005e357620005e262000585565b5b50919050565b60008190508160005260206000209050919050565b60006020601f8301049050919050565b600082821b905092915050565b6000600883026200064d7fffffffffffffffffffffffffffffffffffffffffffffffffffffffffffffffff826200060e565b6200065986836200060e565b95508019841693508086168417925050509392505050565b6000819050919050565b6000819050919050565b6000620006a6620006a06200069a8462000671565b6200067b565b62000671565b9050919050565b6000819050919050565b620006c28362000685565b620006da620006d182620006ad565b8484546200061b565b825550505050565b600090565b620006f1620006e2565b620006fe818484620006b7565b505050565b5b8181101562000726576200071a600082620006e7565b60018101905062000704565b5050565b601f82111562000775576200073f81620005e9565b6200074a84620005fe565b810160208510156200075a578190505b620007726200076985620005fe565b83018262000703565b50505b505050565b600082821c905092915050565b60006200079a600019846008026200077a565b1980831691505092915050565b6000620007b5838362000787565b9150826002028217905092915050565b620007d0826200057a565b67ffffffffffffffff811115620007ec57620007eb62000365565b5b620007f88254620005b4565b620008058282856200072a565b600060209050601f8311600181146200083d576000841562000828578287015190505b620008348582620007a7565b865550620008a4565b601f1984166200084d86620005e9565b60005b82811015620008775784890151825560018201915060208501945060208101905062000850565b8683101562000897578489015162000893601f89168262000787565b8355505b6001600288020188555050505b505050505050565b600081519050919050565b600082825260208201905092915050565b60005b83811015620008e8578082015181840152602081019050620008cb565b60008484015250505050565b60006200090182620008ac565b6200090d8185620008b7565b93506200091f818560208601620008c8565b6200092a8162000354565b840191505092915050565b60006020820190508181036000830152620009518184620008f4565b905092915050565b7f4e487b7100000000000000000000000000000000000000000000000000000000600052603260045260246000fd5b7f4e487b7100000000000000000000000000000000000000000000000000000000600052601160045260246000fd5b6000620009c48262000671565b91507fffffffffffffffffffffffffffffffffffffffffffffffffffffffffffffffff8203620009f957620009f862000988565b5b600182019050919050565b600082825260208201905092915050565b600062000a22826200057a565b62000a2e818562000a04565b935062000a40818560208601620008c8565b62000a4b8162000354565b840191505092915050565b60008115159050919050565b62000a6d8162000a56565b82525050565b600060c082019050818103600083015262000a8f818962000a15565b9050818103602083015262000aa5818862000a15565b905062000ab6604083018762000a62565b818103606083015262000aca818662000a15565b9050818103608083015262000ae0818562000a15565b905062000af160a083018462000a62565b979650505050505050565b600060ff82169050919050565b60008160f81b9050919050565b600062000b238262000b09565b9050919050565b62000b3f62000b398262000afc565b62000b16565b82525050565b600081905092915050565b600062000b5d82620008ac565b62000b69818562000b45565b935062000b7b818560208601620008c8565b80840191505092915050565b600062000b95828662000b2a565b60018201915062000ba7828562000b2a565b60018201915062000bb9828462000b50565b9150819050949350505050565b60805160a0516116ac62000bec60003960006108b50152600061089101526116ac6000f3fe608060405234801561001057600080fd5b50600436106100cf5760003560e01c80637f6497831161008c578063c5a1d7f011610066578063c5a1d7f014610226578063d3d72d2a14610244578063d576129614610263578063f44d4ca314610293576100cf565b80637f649783146101bc57806386f9f8eb146101d8578063be193d2714610208576100cf565b806301ffc9a7146100d457806306fdde0314610104578063176ae7b714610122578063548db1741461015257806354fd4d501461016e5780637359b7421461018c575b600080fd5b6100ee60048036038101906100e99190610a17565b6102af565b6040516100fb9190610a5f565b60405180910390f35b61010c610349565b6040516101199190610b0a565b60405180910390f35b61013c60048036038101906101379190610c5b565b6103d7565b6040516101499190610d54565b60405180910390f35b61016c60048036038101906101679190610ee0565b61053b565b005b610176610681565b6040516101839190610b0a565b60405180910390f35b6101a660048036038101906101a19190610f48565b61070f565b6040516101b39190610d54565b60405180910390f35b6101d660048036038101906101d19190610ee0565b61071a565b005b6101f260048036038101906101ed9190610fec565b610860565b6040516101ff9190610a5f565b60405180910390f35b61021061088f565b60405161021d9190610a5f565b60405180910390f35b61022e6108b3565b60405161023b9190611045565b60405180910390f35b61024c6108d7565b60405161025a92919061106f565b60405180910390f35b61027d6004803603810190610278919061109f565b610916565b60405161028a9190610a5f565b60405180910390f35b6102ad60048036038101906102a891906110f8565b610936565b005b60007f907e1c56000000000000000000000000000000000000000000000000000000007bffffffffffffffffffffffffffffffffffffffffffffffffffffffff1916827bffffffffffffffffffffffffffffffffffffffffffffffffffffffff1916148061034257506301ffc9a760e01b827bffffffffffffffffffffffffffffffffffffffffffffffffffffffff1916145b9050919050565b600080546103569061119b565b80601f01602080910402602001604051908101604052809291908181526020018280546103829061119b565b80156103cf5780601f106103a4576101008083540402835291602001916103cf565b820191906000526020600020905b8154815290600101906020018083116103b257829003601f168201915b505050505081565b60606000806000806000806000806000808c8c8101906103f791906112bf565b9950995099509950995099509950995099509950600260003373ffffffffffffffffffffffffffffffffffffffff1673ffffffffffffffffffffffffffffffffffffffff16815260200190815260200160002060008b73ffffffffffffffffffffffffffffffffffffffff1673ffffffffffffffffffffffffffffffffffffffff16815260200190815260200160002060009054906101000a900460ff16806104e95750600360008b73ffffffffffffffffffffffffffffffffffffffff1673ffffffffffffffffffffffffffffffffffffffff16815260200190815260200160002060009054906101000a900460ff165b610528576040517f08c379a000000000000000000000000000000000000000000000000000000000815260040161051f90611422565b60405180910390fd5b5050505050505050505095945050505050565b60005b815181101561067d576000600260003373ffffffffffffffffffffffffffffffffffffffff1673ffffffffffffffffffffffffffffffffffffffff168152602001908152602001600020600084848151811061059d5761059c611442565b5b602002602001015173ffffffffffffffffffffffffffffffffffffffff1673ffffffffffffffffffffffffffffffffffffffff16815260200190815260200160002060006101000a81548160ff02191690831515021790555081818151811061060957610608611442565b5b602002602001015173ffffffffffffffffffffffffffffffffffffffff163373ffffffffffffffffffffffffffffffffffffffff167f5a76ef3d09a09d8a99c3d9ddddfb7770d906de670d79b5119a8c2cba903814bb60405160405180910390a38080610675906114a0565b91505061053e565b5050565b6001805461068e9061119b565b80601f01602080910402602001604051908101604052809291908181526020018280546106ba9061119b565b80156107075780601f106106dc57610100808354040283529160200191610707565b820191906000526020600020905b8154815290600101906020018083116106ea57829003601f168201915b505050505081565b606095945050505050565b60005b815181101561085c576001600260003373ffffffffffffffffffffffffffffffffffffffff1673ffffffffffffffffffffffffffffffffffffffff168152602001908152602001600020600084848151811061077c5761077b611442565b5b602002602001015173ffffffffffffffffffffffffffffffffffffffff1673ffffffffffffffffffffffffffffffffffffffff16815260200190815260200160002060006101000a81548160ff0219169083151502179055508181815181106107e8576107e7611442565b5b602002602001015173ffffffffffffffffffffffffffffffffffffffff163373ffffffffffffffffffffffffffffffffffffffff167f3d8a67432904f5c76d317bd3d7568237471009d9a286cd487736d0e2d103e6ad60405160405180910390a38080610854906114a0565b91505061071d565b5050565b60026020528160005260406000206020528060005260406000206000915091509054906101000a900460ff1681565b7f000000000000000000000000000000000000000000000000000000000000000081565b7f000000000000000000000000000000000000000000000000000000000000000081565b600060606003808111156108ee576108ed6114e8565b5b9150306040516020016109019190611526565b60405160208183030381529060405290509091565b60036020528060005260406000206000915054906101000a900460ff1681565b50505050565b6060600080836000015184602001518560400151866060015187608001518860a0015160405160200161097496959493929190611541565b6040516020818303038152906040526040516020016109959392919061163d565b6040516020818303038152906040529050919050565b6000604051905090565b600080fd5b600080fd5b60007fffffffff0000000000000000000000000000000000000000000000000000000082169050919050565b6109f4816109bf565b81146109ff57600080fd5b50565b600081359050610a11816109eb565b92915050565b600060208284031215610a2d57610a2c6109b5565b5b6000610a3b84828501610a02565b91505092915050565b60008115159050919050565b610a5981610a44565b82525050565b6000602082019050610a746000830184610a50565b92915050565b600081519050919050565b600082825260208201905092915050565b60005b83811015610ab4578082015181840152602081019050610a99565b60008484015250505050565b6000601f19601f8301169050919050565b6000610adc82610a7a565b610ae68185610a85565b9350610af6818560208601610a96565b610aff81610ac0565b840191505092915050565b60006020820190508181036000830152610b248184610ad1565b905092915050565b600073ffffffffffffffffffffffffffffffffffffffff82169050919050565b6000610b5782610b2c565b9050919050565b6000610b6982610b4c565b9050919050565b610b7981610b5e565b8114610b8457600080fd5b50565b600081359050610b9681610b70565b92915050565b600080fd5b600060608284031215610bb757610bb6610b9c565b5b81905092915050565b6000819050919050565b610bd381610bc0565b8114610bde57600080fd5b50565b600081359050610bf081610bca565b92915050565b600080fd5b600080fd5b600080fd5b60008083601f840112610c1b57610c1a610bf6565b5b8235905067ffffffffffffffff811115610c3857610c37610bfb565b5b602083019150836001820283011115610c5457610c53610c00565b5b9250929050565b600080600080600060808688031215610c7757610c766109b5565b5b6000610c8588828901610b87565b955050602086013567ffffffffffffffff811115610ca657610ca56109ba565b5b610cb288828901610ba1565b9450506040610cc388828901610be1565b935050606086013567ffffffffffffffff811115610ce457610ce36109ba565b5b610cf088828901610c05565b92509250509295509295909350565b600081519050919050565b600082825260208201905092915050565b6000610d2682610cff565b610d308185610d0a565b9350610d40818560208601610a96565b610d4981610ac0565b840191505092915050565b60006020820190508181036000830152610d6e8184610d1b565b905092915050565b7f4e487b7100000000000000000000000000000000000000000000000000000000600052604160045260246000fd5b610dae82610ac0565b810181811067ffffffffffffffff82111715610dcd57610dcc610d76565b5b80604052505050565b6000610de06109ab565b9050610dec8282610da5565b919050565b600067ffffffffffffffff821115610e0c57610e0b610d76565b5b602082029050602081019050919050565b610e2681610b4c565b8114610e3157600080fd5b50565b600081359050610e4381610e1d565b92915050565b6000610e5c610e5784610df1565b610dd6565b90508083825260208201905060208402830185811115610e7f57610e7e610c00565b5b835b81811015610ea85780610e948882610e34565b845260208401935050602081019050610e81565b5050509392505050565b600082601f830112610ec757610ec6610bf6565b5b8135610ed7848260208601610e49565b91505092915050565b600060208284031215610ef657610ef56109b5565b5b600082013567ffffffffffffffff811115610f1457610f136109ba565b5b610f2084828501610eb2565b91505092915050565b600060608284031215610f3f57610f3e610b9c565b5b81905092915050565b600080600080600060808688031215610f6457610f636109b5565b5b6000610f7288828901610b87565b955050602086013567ffffffffffffffff811115610f9357610f926109ba565b5b610f9f88828901610f29565b9450506040610fb088828901610be1565b935050606086013567ffffffffffffffff811115610fd157610fd06109ba565b5b610fdd88828901610c05565b92509250509295509295909350565b60008060408385031215611003576110026109b5565b5b600061101185828601610e34565b925050602061102285828601610e34565b9150509250929050565b6000819050919050565b61103f8161102c565b82525050565b600060208201905061105a6000830184611036565b92915050565b61106981610bc0565b82525050565b60006040820190506110846000830185611060565b81810360208301526110968184610d1b565b90509392505050565b6000602082840312156110b5576110b46109b5565b5b60006110c384828501610e34565b91505092915050565b6110d581610a44565b81146110e057600080fd5b50565b6000813590506110f2816110cc565b92915050565b60008060008060608587031215611112576111116109b5565b5b600061112087828801610b87565b9450506020611131878288016110e3565b935050604085013567ffffffffffffffff811115611152576111516109ba565b5b61115e87828801610c05565b925092505092959194509250565b7f4e487b7100000000000000000000000000000000000000000000000000000000600052602260045260246000fd5b600060028204905060018216806111b357607f821691505b6020821081036111c6576111c561116c565b5b50919050565b60006111d782610b2c565b9050919050565b6111e7816111cc565b81146111f257600080fd5b50565b600081359050611204816111de565b92915050565b600080fd5b600067ffffffffffffffff82111561122a57611229610d76565b5b61123382610ac0565b9050602081019050919050565b82818337600083830152505050565b600061126261125d8461120f565b610dd6565b90508281526020810184848401111561127e5761127d61120a565b5b611289848285611240565b509392505050565b600082601f8301126112a6576112a5610bf6565b5b81356112b684826020860161124f565b91505092915050565b6000806000806000806000806000806101408b8d0312156112e3576112e26109b5565b5b60006112f18d828e016111f5565b9a505060206113028d828e01610be1565b99505060408b013567ffffffffffffffff811115611323576113226109ba565b5b61132f8d828e01611291565b98505060606113408d828e01610be1565b97505060806113518d828e01610be1565b96505060a06113628d828e01610be1565b95505060c06113738d828e016111f5565b94505060e06113848d828e016111f5565b9350506101008b013567ffffffffffffffff8111156113a6576113a56109ba565b5b6113b28d828e01611291565b9250506101206113c48d828e016111f5565b9150509295989b9194979a5092959850565b7f41646472657373206e6f7420696e207468652077686974656c69737400000000600082015250565b600061140c601c83610a85565b9150611417826113d6565b602082019050919050565b6000602082019050818103600083015261143b816113ff565b9050919050565b7f4e487b7100000000000000000000000000000000000000000000000000000000600052603260045260246000fd5b7f4e487b7100000000000000000000000000000000000000000000000000000000600052601160045260246000fd5b60006114ab82610bc0565b91507fffffffffffffffffffffffffffffffffffffffffffffffffffffffffffffffff82036114dd576114dc611471565b5b600182019050919050565b7f4e487b7100000000000000000000000000000000000000000000000000000000600052602160045260246000fd5b61152081610b4c565b82525050565b600060208201905061153b6000830184611517565b92915050565b600060c082019050818103600083015261155b8189610ad1565b9050818103602083015261156f8188610ad1565b905061157e6040830187610a50565b81810360608301526115908186610ad1565b905081810360808301526115a48185610ad1565b90506115b360a0830184610a50565b979650505050505050565b600060ff82169050919050565b60008160f81b9050919050565b60006115e3826115cb565b9050919050565b6115fb6115f6826115be565b6115d8565b82525050565b600081905092915050565b600061161782610cff565b6116218185611601565b9350611631818560208601610a96565b80840191505092915050565b600061164982866115ea565b60018201915061165982856115ea565b600182019150611669828461160c565b915081905094935050505056fea26469706673582212203a47294fb948c234a44295eb91f24e69d07d4e1cefb3e19676016fa4f0c8814a64736f6c6343000812003368747470733a2f2f7a656e67756172642e78797a2f7374617469632f6d656469612f7265636f766572792e37653434343137653833336232316461643638643130356562643865646232362e737667",
  "linkReferences": {},
  "deployedLinkReferences": {}
}